{
  "transactions": [
    {
      "hash": "0x91c34f7f46c46426bd68d8323ccc0df72c8e2e9f0d1b4de4bdfecbdb10ee5f6c",
      "transactionType": "CALL",
      "contractName": null,
      "contractAddress": "0x000000000004444c5dc75cb358380d2e3de08a90",
      "function": "initialize((address,address,uint24,int24,address),uint160)",
      "arguments": [
        "(0xaaeE1A9723aaDB7afA2810263653A34bA2C21C7a, 0xE0f63A424a4439cBE457D80E4f4b51aD25b2c56C, 10, 200, 0x0000000000000000000000000000000000000000)",
        "671727353717277636050"
      ],
      "transaction": {
        "from": "0x6351a222b024165abe0ab3008fbb2aa18c986878",
        "to": "0x000000000004444c5dc75cb358380d2e3de08a90",
        "gas": "0x1289f",
        "value": "0x0",
        "input": "0x6276cbbe000000000000000000000000aaee1a9723aadb7afa2810263653a34ba2c21c7a000000000000000000000000e0f63a424a4439cbe457d80e4f4b51ad25b2c56c000000000000000000000000000000000000000000000000000000000000000a00000000000000000000000000000000000000000000000000000000000000c800000000000000000000000000000000000000000000000000000000000000000000000000000000000000000000000000000000000000246a16f53de780b5d2",
        "nonce": "0x4e6",
        "chainId": "0x1"
      },
      "additionalContracts": [],
      "isFixedGasLimit": false
    }
  ],
  "receipts": [
    {
      "status": "0x1",
      "cumulativeGasUsed": "0xc5c2a3",
      "logs": [
        {
          "address": "0x000000000004444c5dc75cb358380d2e3de08a90",
          "topics": [
            "0xdd466e674ea557f56295e2d0218a125ea4b4f0f6f3307b95f85e6110838d6438",
            "0x6cd93b999967d7032a190fa29d7701d6d2dc86ab173193ea2ce23b43c040068a",
            "0x000000000000000000000000aaee1a9723aadb7afa2810263653a34ba2c21c7a",
            "0x000000000000000000000000e0f63a424a4439cbe457d80e4f4b51ad25b2c56c"
          ],
          "data": "0x000000000000000000000000000000000000000000000000000000000000000a00000000000000000000000000000000000000000000000000000000000000c800000000000000000000000000000000000000000000000000000000000000000000000000000000000000000000000000000000000000246a16f53de780b5d2fffffffffffffffffffffffffffffffffffffffffffffffffffffffffffa53ea",
          "blockHash": "0x0940c20f09c97d0225c0d1bf0e3a0a1893603affa519bd8a4d26eecfc8d9866d",
          "blockNumber": "0x15a0ef1",
          "transactionHash": "0x91c34f7f46c46426bd68d8323ccc0df72c8e2e9f0d1b4de4bdfecbdb10ee5f6c",
          "transactionIndex": "0x5a",
          "logIndex": "0x14e",
          "removed": false
        }
      ],
      "logsBloom": "0x00000000000000000000000000000000000000000000000000000000000000000000000020000000000000000000000000000000000000000000000000000000200000000000000000000000000000000000000008010000000000000000000000000000000000000000000000000200000000080000000000001000000000000000000000000008000000000000000000000001000000000000000000200000000000000000000000000000100000000000000000000000000000000000000000002800000000000000000000000020000000000000000000000000000000000000000000000100000000000000000000000000000000000000000000000000",
      "type": "0x2",
      "transactionHash": "0x91c34f7f46c46426bd68d8323ccc0df72c8e2e9f0d1b4de4bdfecbdb10ee5f6c",
      "transactionIndex": "0x5a",
      "blockHash": "0x0940c20f09c97d0225c0d1bf0e3a0a1893603affa519bd8a4d26eecfc8d9866d",
      "blockNumber": "0x15a0ef1",
      "gasUsed": "0xcad2",
      "effectiveGasPrice": "0x57694261",
      "from": "0x6351a222b024165abe0ab3008fbb2aa18c986878",
      "to": "0x000000000004444c5dc75cb358380d2e3de08a90",
      "contractAddress": null
    }
  ],
  "libraries": [],
  "pending": [],
  "returns": {},
  "timestamp": 1749620319,
  "chain": 1,
  "commit": "f255ff5"
}