{
  "transactions": [
    {
      "hash": "0xed41a4c6c4acd8f389d3432c76a5684bc1c15777b8c32364dd98e19f20716808",
      "transactionType": "CALL",
      "contractName": null,
      "contractAddress": "0x000000000004444c5dc75cb358380d2e3de08a90",
      "function": "initialize((address,address,uint24,int24,address),uint160)",
      "arguments": [
        "(0xaaeE1A9723aaDB7afA2810263653A34bA2C21C7a, 0xE0f63A424a4439cBE457D80E4f4b51aD25b2c56C, 50000, 100, 0x0000000000000000000000000000000000000000)",
        "667060960074006420391"
      ],
      "transaction": {
        "from": "0x6351a222b024165abe0ab3008fbb2aa18c986878",
        "to": "0x000000000004444c5dc75cb358380d2e3de08a90",
        "gas": "0x11808",
        "value": "0x0",
        "input": "0x6276cbbe000000000000000000000000aaee1a9723aadb7afa2810263653a34ba2c21c7a000000000000000000000000e0f63a424a4439cbe457d80e4f4b51ad25b2c56c000000000000000000000000000000000000000000000000000000000000c35000000000000000000000000000000000000000000000000000000000000000640000000000000000000000000000000000000000000000000000000000000000000000000000000000000000000000000000000000000024295498f2662e5ba7",
        "nonce": "0x4e5",
        "chainId": "0x1"
      },
      "additionalContracts": [],
      "isFixedGasLimit": false
    }
  ],
  "receipts": [
    {
      "status": "0x1",
      "cumulativeGasUsed": "0xa3a71e",
      "logs": [
        {
          "address": "0x000000000004444c5dc75cb358380d2e3de08a90",
          "topics": [
            "0xdd466e674ea557f56295e2d0218a125ea4b4f0f6f3307b95f85e6110838d6438",
            "0x09174e808a0cf486646655001e759b9cf871a366f743caea00fa8242200d226b",
            "0x000000000000000000000000aaee1a9723aadb7afa2810263653a34ba2c21c7a",
            "0x000000000000000000000000e0f63a424a4439cbe457d80e4f4b51ad25b2c56c"
          ],
          "data": "0x000000000000000000000000000000000000000000000000000000000000c35000000000000000000000000000000000000000000000000000000000000000640000000000000000000000000000000000000000000000000000000000000000000000000000000000000000000000000000000000000024295498f2662e5ba7fffffffffffffffffffffffffffffffffffffffffffffffffffffffffffa535f",
          "blockHash": "0x4a6dd71a1478b4199fda7e310e09d13885fb973698dc8756b8d4533956bf3b29",
          "blockNumber": "0x15a0a9b",
          "transactionHash": "0xed41a4c6c4acd8f389d3432c76a5684bc1c15777b8c32364dd98e19f20716808",
          "transactionIndex": "0x78",
          "logIndex": "0x154",
          "removed": false
        }
      ],
      "logsBloom": "0x00000000000000000000000000000000000000000000000000000000000000000000000020000000000000000000000000000000000000000000000000000000200000000000000000000000000000000000000008010000000000000000000000000000000000000000000000000000400000080000000000001000000000000000000000000008000000000000000000000001000000000200000000200000000000000010000000000000100000000000000000000000000000000000000000002800000000000000000000000000000000000000000000000000000000000000000000000000000000000000000000000000000000000000000000000000",
      "type": "0x2",
      "transactionHash": "0xed41a4c6c4acd8f389d3432c76a5684bc1c15777b8c32364dd98e19f20716808",
      "transactionIndex": "0x78",
      "blockHash": "0x4a6dd71a1478b4199fda7e310e09d13885fb973698dc8756b8d4533956bf3b29",
      "blockNumber": "0x15a0a9b",
      "gasUsed": "0xcabe",
      "effectiveGasPrice": "0x6dae7d3b",
      "from": "0x6351a222b024165abe0ab3008fbb2aa18c986878",
      "to": "0x000000000004444c5dc75cb358380d2e3de08a90",
      "contractAddress": null
    }
  ],
  "libraries": [],
  "pending": [],
  "returns": {},
  "timestamp": 1749606843,
  "chain": 1,
  "commit": "f255ff5"
}