{
  "transactions": [
    {
      "hash": "0x0bfcb89e63c61c683d81fcebdb9430f156662c2c1ae17fdb5a433944f1669ebb",
      "transactionType": "CALL",
      "contractName": null,
      "contractAddress": "0x000000000004444c5dc75cb358380d2e3de08a90",
      "function": "initialize((address,address,uint24,int24,address),uint160)",
      "arguments": [
        "(0xaaeE1A9723aaDB7afA2810263653A34bA2C21C7a, 0xE0f63A424a4439cBE457D80E4f4b51aD25b2c56C, 10000, 200, 0x0000000000000000000000000000000000000000)",
        "6657278917532940768107176740010"
      ],
      "transaction": {
        "from": "0x6351a222b024165abe0ab3008fbb2aa18c986878",
        "to": "0x000000000004444c5dc75cb358380d2e3de08a90",
        "gas": "0x1184e",
        "value": "0x0",
        "input": "0x6276cbbe000000000000000000000000aaee1a9723aadb7afa2810263653a34ba2c21c7a000000000000000000000000e0f63a424a4439cbe457d80e4f4b51ad25b2c56c000000000000000000000000000000000000000000000000000000000000271000000000000000000000000000000000000000000000000000000000000000c80000000000000000000000000000000000000000000000000000000000000000000000000000000000000000000000000000005406d40d8d8edea493f93944aa",
        "nonce": "0x4e4",
        "chainId": "0x1"
      },
      "additionalContracts": [],
      "isFixedGasLimit": false
    }
  ],
  "receipts": [
    {
      "status": "0x1",
      "cumulativeGasUsed": "0xa96068",
      "logs": [
        {
          "address": "0x000000000004444c5dc75cb358380d2e3de08a90",
          "topics": [
            "0xdd466e674ea557f56295e2d0218a125ea4b4f0f6f3307b95f85e6110838d6438",
            "0x82ef80200e0657bcee8bcac992db8eb34c1eebdbf42693449240961f18001e0e",
            "0x000000000000000000000000aaee1a9723aadb7afa2810263653a34ba2c21c7a",
            "0x000000000000000000000000e0f63a424a4439cbe457d80e4f4b51ad25b2c56c"
          ],
          "data": "0x000000000000000000000000000000000000000000000000000000000000271000000000000000000000000000000000000000000000000000000000000000c80000000000000000000000000000000000000000000000000000000000000000000000000000000000000000000000000000005406d40d8d8edea493f93944aa0000000000000000000000000000000000000000000000000000000000015a33",
          "blockHash": "0xc151193108fae54820dc26c4462d02760b39f92360ea1c64e7d091d90bc5d12c",
          "blockNumber": "0x15a0a10",
          "transactionHash": "0x0bfcb89e63c61c683d81fcebdb9430f156662c2c1ae17fdb5a433944f1669ebb",
          "transactionIndex": "0x40",
          "logIndex": "0x15e",
          "removed": false
        }
      ],
      "logsBloom": "0x00000000000000000000000000000000000000000000000000000000000000000000000020000000000000000000000000000000000000000000000000000000200000000000000000000000000000000000000008010080000000000000000000000000000000000000000000000000000000080000000000001000000000000000000000000008000000000000000000000001000000000000000000200000000000000000000000000000100000000000000000000000000000000000000000002800000000000000000000000000000000000000000000000000000000004000000000000000000000000000000000000000000000000000400000000000",
      "type": "0x2",
      "transactionHash": "0x0bfcb89e63c61c683d81fcebdb9430f156662c2c1ae17fdb5a433944f1669ebb",
      "transactionIndex": "0x40",
      "blockHash": "0xc151193108fae54820dc26c4462d02760b39f92360ea1c64e7d091d90bc5d12c",
      "blockNumber": "0x15a0a10",
      "gasUsed": "0xcaf0",
      "effectiveGasPrice": "0x6a0c5cc4",
      "from": "0x6351a222b024165abe0ab3008fbb2aa18c986878",
      "to": "0x000000000004444c5dc75cb358380d2e3de08a90",
      "contractAddress": null
    }
  ],
  "libraries": [],
  "pending": [],
  "returns": {},
  "timestamp": 1749605172,
  "chain": 1,
  "commit": "f255ff5"
}